:100000000C9434000C943E000C943E000C943E0082
:100010000C943E000C943E000C943E000C943E0068
:100020000C943E000C943E000C943E000C943E0058
:100030000C943E000C943E000C943E000C943E0048
:100040000C943E000C943E000C943E000C943E0038
:100050000C943E000C943E000C943E000C943E0028
:100060000C943E000C943E0011241FBECFEFD8E04C
:10007000DEBFCDBF0E9440000C9457000C940000DE
:10008000259A2D9A2FEF33ED80E3215030408040A8
:10009000E1F700C000002D989AEA26EE36E981E0EB
:1000A0009150204030408040D9F70000EACFF894CA
:0200B000FFCF80
:00000001FF
