:100000000C942E000C9438000C9438000C9438009A
:100010000C9438000C9438000C9438000C94380080
:100020000C9438000C9438000C9438000C94380070
:100030000C9438000C9438000C9438000C94380060
:100040000C9438000C9438000C9438000C94380050
:100050000C9438000C9438000C94380011241FBE06
:10006000CFEFD8E0DEBFCDBF0E9457000C947200E6
:100070000C940000259A80E090E00895569AE4E6FA
:10008000F0E020812F7D208324B5226424BD25B596
:10009000246025BD892B41F08FB780688FBFEEE6C5
:1000A000F0E080818260808380E090E008950E948B
:1000B0003A0080E090E00E943E0089E487BD8FE333
:1000C0009CE90197F1F700C000002D988FE39CE9AF
:1000D0000197F1F700C000002D9A87B590E00196D6
:0800E00087BDEDCFF894FFCFBE
:00000001FF
