S01A0000476363417070333239704C6561726E696E672E737265639E
S11300000C942E000C9438000C9438000C94380096
S11300100C9438000C9438000C9438000C9438007C
S11300200C9438000C9438000C9438000C9438006C
S11300300C9438000C9438000C9438000C9438005C
S11300400C9438000C9438000C9438000C9438004C
S11300500C9438000C9438000C94380011241FBE02
S1130060CFEFD8E0DEBFCDBF0E942D020C94A902D1
S11300700C94000080E090E00E9430020E9475021F
S11300802FEF87E893E1215080409040E1F700C0D2
S113009000000E9454022FEF83EC99E0215080402D
S11300A09040E1F700C000000E945F022FEF83EC54
S11300B099E0215080409040E1F700C000000E9488
S11300C06A022FEF87E893E1215080409040E1F7E6
S11300D000C000000E945F022FEF83EC99E02150E2
S11300E080409040E1F700C000000E9454022FEFCE
S11300F083EC99E0215080409040E1F700C000007B
S11301000E9449022FEF87E893E1215080409040FC
S1130110E1F700C000000E94A1022FEF89EF90E0F8
S1130120215080409040E1F700C000000E94A502E9
S11301300E9449022FEF83EC99E0215080409040C7
S1130140E1F700C000000E945F022FEF83EC99E00A
S1130150215080409040E1F700C000000E947502E9
S11301602FEF87E893E1215080409040E1F700C0F1
S113017000000E946A022FEF83EC99E02150804036
S11301809040E1F700C000000E945F022FEF83EC73
S113019099E0215080409040E1F700C000000E94A7
S11301A054022FEF87E893E1215080409040E1F71B
S11301B000C000000E94A1022FEF89EF90E02150BF
S11301C080409040E1F700C000000E94A5020E9418
S11301D054022FEF83EC99E0215080409040E1F7E6
S11301E000C000000E945F022FEF83EC99E02150D1
S11301F080409040E1F700C000000E946A022FEFA7
S113020087E893E1215080409040E1F700C000006E
S11302100E9475022FEF87E893E1215080409040BF
S1130220E1F700C000000E945F022FEF87E893E12E
S1130230215080409040E1F700C000000E94490234
S11302402FEF87E893E1215080409040E1F700C010
S113025000000E94A1022FEF89EF90E0215080401E
S11302609040E1F700C000000E94A5020E944902EC
S11302702FEF8FE097E2215080409040E1F700C0DB
S113028000000E946A022FEF87E893E1215080402A
S11302909040E1F700C000000E9480022FEF83EC41
S11302A099E0215080409040E1F700C000000E9496
S11302B096022FEF87E893E1215080409040E1F7C8
S11302C000C000000E948B022FEF83EC99E02150C4
S11302D080409040E1F700C000000E9480022FEFB0
S11302E083EC99E0215080409040E1F700C0000089
S11302F00E9475022FEF87E893E1215080409040DF
S1130300E1F700C000002FEF83EC99E0215080401A
S11303109040E1F700C000000E945F022FEF83ECE1
S113032099E0215080409040E1F700C000000E9415
S113033075022FEF87E893E1215080409040E1F768
S113034000C000000E946A022FEF83EC99E0215064
S113035080409040E1F700C000000E945F022FEF50
S113036083EC99E0215080409040E1F700C0000008
S11303700E9454022FEF87E893E12150804090407F
S1130380E1F700C000000E94A1022FEF89EF90E086
S1130390215080409040E1F700C000000E94A50277
S11303A00E9454022FEF83EC99E02150804090404A
S11303B0E1F700C000000E945F022FEF83EC99E098
S11303C0215080409040E1F700C000000E946A0282
S11303D02FEF87E893E1215080409040E1F700C07F
S11303E000000E9475022FEF87E893E121508040BE
S11303F09040E1F700C000000E945F022FEF87E801
S113040093E1215080409040E1F700C000000E9439
S113041049022FEF87E893E1215080409040E1F7B3
S113042000C000000E94A1022FEF89EF90E021504C
S113043080409040E1F700C000000E94A5020E94A5
S113044049022FEF8FE097E2215080409040E1F77E
S113045000C0000080E090E008950E943A00FDCFC3
S1130460569AE4E6F0E020812F7D208324B52264AF
S113047024BD25B5246025BD892B41F08FB7806844
S11304808FBFEEE6F0E080818260808380E090E0C0
S1130490089585B5887F85BD85B5846085BD84E96B
S11304A087BD80E090E0089585B5887F85BD85B5DA
S11304B0846085BD84E887BD80E090E0089585B5BB
S11304C0887F85BD85B5846085BD8CE787BD80E068
S11304D090E0089585B5887F85BD85B5846085BD28
S11304E08FE687BD80E090E0089585B5887F85BD5F
S11304F085B5846085BD82E687BD80E090E008957F
S113050085B5887F85BD85B5846085BD8DE587BD4E
S113051080E090E0089585B5887F85BD85B58460C9
S113052085BD83E587BD80E090E0089585B5887F2B
S113053085BD85B5846085BD89E487BD80E090E094
S11305400895569880E090E00895569A80E090E0EF
S10905500895F894FFCFAA
S9030000FC
