:100000000C942E000C9438000C9438000C9438009A
:100010000C9438000C9438000C9438000C94380080
:100020000C9438000C9438000C9438000C94380070
:100030000C9438000C9438000C9438000C94380060
:100040000C9438000C9438000C9438000C94380050
:100050000C9438000C9438000C94380011241FBE06
:10006000CFEFD8E0DEBFCDBF0E943A000C94500025
:100070000C940000259A2D9A2FEF89E698E12150E3
:1000800080409040E1F700C000002D982FEF89E6F6
:1000900098E1215080409040E1F700C00000EBCF94
:0400A000F894FFCF02
:00000001FF
