:100000000C942E000C9438000C9438000C9438009A
:100010000C9438000C9438000C9438000C94380080
:100020000C9438000C9438000C9438000C94380070
:100030000C9438000C9438000C9438000C94380060
:100040000C9438000C9438000C9438000C94380050
:100050000C9438000C9438000C94380011241FBE06
:10006000CFEFD8E0DEBFCDBF0E94D4080C947C094E
:100070000C9400000E9406092FEF8FE097E22150B8
:1000800080409040E1F700C000000E9474092FEF0B
:1000900087E893E1215080409040E1F700C00000E4
:1000A0000E9478090E9406092FEF83EC99E0215005
:1000B00080409040E1F700C000000E9474092FEFDB
:1000C00089EF90E0215080409040E1F700C00000AF
:1000D0000E9478090E9406092FEF89EC98E02150D0
:1000E00080409040E1F700C000000E9474092FEFAB
:1000F00089EF90E0215080409040E1F700C000007F
:100100000E9478090E9406092FEF89EC98E021509F
:1001100080409040E1F700C000000E9474092FEF7A
:1001200089EF90E0215080409040E1F700C000004E
:100130000E9478090E9406092FEF89EC98E021506F
:1001400080409040E1F700C000000E9474092FEF4A
:1001500089EF90E0215080409040E1F700C000001E
:100160000E9478090E9406092FEF8DE892E1215044
:1001700080409040E1F700C000000E94FB082FEF94
:1001800083EC99E0215080409040E1F700C00000EE
:100190000E9406092FEF87E893E1215080409040AC
:1001A000E1F700C000000E9474092FEF87E893E197
:1001B000215080409040E1F700C000000E94780983
:1001C0000E9406092FEF83EC99E021508040904077
:1001D000E1F700C000000E9474092FEF89EF90E062
:1001E000215080409040E1F700C000000E94780953
:1001F0000E9406092FEF89EC98E021508040904042
:10020000E1F700C000000E9474092FEF89EF90E031
:10021000215080409040E1F700C000000E94780922
:100220000E9406092FEF89EC98E021508040904011
:10023000E1F700C000000E9474092FEF89EF90E001
:10024000215080409040E1F700C000000E947809F2
:100250000E9406092FEF89EC98E0215080409040E1
:10026000E1F700C000000E9474092FEF89EF90E0D1
:10027000215080409040E1F700C000000E947809C2
:100280000E9406092FEF8DE892E1215080409040B6
:10029000E1F700C000000E94FB082FEF83EC99E01B
:1002A000215080409040E1F700C000000E94060904
:1002B0002FEF87E893E1215080409040E1F700C0A4
:1002C00000000E9474092FEF87E893E121508040DD
:1002D0009040E1F700C000000E9478090E940609E2
:1002E0002FEF83EC99E0215080409040E1F700C06F
:1002F00000000E9474092FEF89EF90E021508040A8
:100300009040E1F700C000000E9478090E940609B1
:100310002FEF89EC98E0215080409040E1F700C039
:1003200000000E9474092FEF89EF90E02150804077
:100330009040E1F700C000000E9478090E94060981
:100340002FEF89EC98E0215080409040E1F700C009
:1003500000000E9474092FEF89EF90E02150804047
:100360009040E1F700C000000E9478090E94060951
:100370002FEF89EC98E0215080409040E1F700C0D9
:1003800000000E9474092FEF89EF90E02150804017
:100390009040E1F700C000000E9478090E94060921
:1003A0002FEF89EC98E0215080409040E1F700C0A9
:1003B00000000E94F0082FEF81EE94E02150804071
:1003C0009040E1F700C000000E9474092FEF89EF10
:1003D00090E0215080409040E1F700C000000E9472
:1003E00078090E94F0082FEF87EE93E021508040BB
:1003F0009040E1F700C000000E9474092FEF89EFE0
:1004000090E0215080409040E1F700C000000E9441
:1004100078090E94F0082FEF89EC98E02150804085
:100420009040E1F700C000000E9474092FEF89EFAF
:1004300090E0215080409040E1F700C000000E9411
:1004400078090E94F0082FEF87EE93E0215080405A
:100450009040E1F700C000000E9474092FEF89EF7F
:1004600090E0215080409040E1F700C000000E94E1
:1004700078090E94F0082FEF87EE93E0215080402A
:100480009040E1F700C000000E9474092FEF89EF4F
:1004900090E0215080409040E1F700C000000E94B1
:1004A00078090E94F0082FEF89EC98E021508040F5
:1004B0009040E1F700C000000E9474092FEF89EF1F
:1004C00090E0215080409040E1F700C000000E9481
:1004D00078090E94F0082FEF87EE93E021508040CA
:1004E0009040E1F700C000000E9474092FEF89EFEF
:1004F00090E0215080409040E1F700C000000E9451
:1005000078090E94F0082FEF87EE93E02150804099
:100510009040E1F700C000000E9474092FEF89EFBE
:1005200090E0215080409040E1F700C000000E9420
:1005300078090E94F0082FEF89EC98E02150804064
:100540009040E1F700C000000E9474092FEF89EF8E
:1005500090E0215080409040E1F700C000000E94F0
:1005600078090E94F0082FEF89EC98E02150804034
:100570009040E1F700C0000080E090E008950E9404
:1005800006092FEF87E893E1215080409040E1F782
:1005900000C000000E94F0082FEF87E893E121508F
:1005A00080409040E1F700C000002FEF83EC99E01D
:1005B000215080409040E1F700C000000E940609F1
:1005C0002FEF83EC99E0215080409040E1F700C08C
:1005D00000000E9474092FEF89EF90E021508040C5
:1005E0009040E1F700C000000E9478090E940609CF
:1005F0002FEF87EE93E0215080409040E1F700C05C
:1006000000000E9411092FEF81EE94E021508040FC
:100610009040E1F700C000000E941C092FEF81EE1E
:1006200094E0215080409040E1F700C000000E941B
:1006300027092FEF81EE94E0215080409040E1F7B0
:1006400000C000000E9432092FEF8FE097E2215096
:1006500080409040E1F700C000000E9474092FEF35
:1006600083EC99E0215080409040E1F700C0000009
:100670000E9478090E9432092FEF83EC99E0215003
:1006800080409040E1F700C000000E9474092FEF05
:1006900089EF90E0215080409040E1F700C00000D9
:1006A0000E9478090E9432092FEF89EC98E02150CE
:1006B00080409040E1F700C000000E943D092FEF0C
:1006C00083EC99E0215080409040E1F700C00000A9
:1006D0000E9448092FEF83EC99E021508040904020
:1006E000E1F700C000000E9453092FEF8FE097E26E
:1006F000215080409040E1F700C000000E94740942
:100700002FEF83EC99E0215080409040E1F700C04A
:1007100000000E9478090E9453092FEF83EC99E0B2
:10072000215080409040E1F700C000000E94740911
:100730002FEF89EF90E0215080409040E1F700C01A
:1007400000000E9478090E9453092FEF89EC98E07D
:10075000215080409040E1F700C000000E9448090D
:100760002FEF83EC99E0215080409040E1F700C0EA
:1007700000000E943D092FEF83EC99E0215080405A
:100780009040E1F700C000000E9448092FEF87E881
:1007900093E1215080409040E1F700C000000E94AA
:1007A0003D092FEF81EE94E0215080409040E1F729
:1007B00000C000000E9432092FEF8FE097E2215025
:1007C00080409040E1F700C000000E9474092FEFC4
:1007D00089EF90E0215080409040E1F700C0000098
:1007E0000E9478090E9432092FEF89EC98E021508D
:1007F00080409040E1F700C000000E9427092FEFE1
:1008000083EC99E0215080409040E1F700C0000067
:100810000E9474092FEF89EF90E0215080409040B2
:10082000E1F700C000000E9478090E9427092FEF1D
:1008300087EE93E0215080409040E1F700C0000037
:100840000E9432092FEF81EE94E0215080409040C9
:10085000E1F700C000000E943D092FEF8FE097E212
:10086000215080409040E1F700C000000E94320912
:100870002FEF83EC99E0215080409040E1F700C0D9
:1008800000000E943D092FEF83EC99E02150804049
:100890009040E1F700C000000E941C092FEF83EC9C
:1008A00099E0215080409040E1F700C000000E9494
:1008B00074092FEF89EF90E0215080409040E1F7DC
:1008C00000C000000E9478090E941C092FEF87EEEB
:1008D00093E0215080409040E1F700C000000E946A
:1008E00027092FEF81EE94E0215080409040E1F7FE
:1008F00000C000000E9432092FEF8FE097E22150E4
:1009000080409040E1F700C000000E9427092FEFCF
:1009100083EC99E0215080409040E1F700C0000056
:100920000E941C092FEF83EC99E0215080409040F9
:10093000E1F700C000000E9411092FEF83EC99E05D
:10094000215080409040E1F700C000000E947409EF
:100950002FEF89EF90E0215080409040E1F700C0F8
:1009600000000E9478090E9411092FEF87EE93E0A2
:10097000215080409040E1F700C000000E941C0917
:100980002FEF81EE94E0215080409040E1F700C0CD
:1009900000000E9427092FEF8FE097E2215080404E
:1009A0009040E1F700C000000E943D092FEF87E86A
:1009B00093E1215080409040E1F700C000000E9488
:1009C00032092FEF83EC99E0215080409040E1F70D
:1009D00000C000000E94F0082FEF81EE94E021504B
:1009E00080409040E1F700C000000E9474092FEFA2
:1009F00089EF90E0215080409040E1F700C0000076
:100A00000E9478090E94F0082FEF87EE93E02150B2
:100A100080409040E1F700C000000E9474092FEF71
:100A200089EF90E0215080409040E1F700C0000045
:100A30000E9478090E94F0082FEF89EC98E021507D
:100A400080409040E1F700C000000E9474092FEF41
:100A500089EF90E0215080409040E1F700C0000015
:100A60000E9478090E94F0082FEF87EE93E0215052
:100A700080409040E1F700C000000E9474092FEF11
:100A800089EF90E0215080409040E1F700C00000E5
:100A90000E9478090E94F0082FEF87EE93E0215022
:100AA00080409040E1F700C000000E9474092FEFE1
:100AB00089EF90E0215080409040E1F700C00000B5
:100AC0000E9478090E94F0082FEF89EC98E02150ED
:100AD00080409040E1F700C000000E9474092FEFB1
:100AE00089EF90E0215080409040E1F700C0000085
:100AF0000E9478090E94F0082FEF87EE93E02150C2
:100B000080409040E1F700C000000E9474092FEF80
:100B100089EF90E0215080409040E1F700C0000054
:100B20000E9478090E94F0082FEF87EE93E0215091
:100B300080409040E1F700C000000E9474092FEF50
:100B400089EF90E0215080409040E1F700C0000024
:100B50000E9478090E94F0082FEF89EC98E021505C
:100B600080409040E1F700C000000E9474092FEF20
:100B700089EF90E0215080409040E1F700C00000F4
:100B80000E9478090E94F0082FEF89EC98E021502C
:100B900080409040E1F700C000000E9406092FEF5E
:100BA00087E893E1215080409040E1F700C00000C9
:100BB0000E94F0082FEF87E893E121508040904099
:100BC000E1F700C000002FEF83EC99E02150804056
:100BD0009040E1F700C000000E9406092FEF83EC6F
:100BE00099E0215080409040E1F700C000000E9451
:100BF00074092FEF89EF90E0215080409040E1F799
:100C000000C000000E9478090E9406092FEF87EEBD
:100C100093E0215080409040E1F700C000000E9426
:100C200011092FEF81EE94E0215080409040E1F7D0
:100C300000C000000E941C092FEF81EE94E02150BB
:100C400080409040E1F700C000000E9427092FEF8C
:100C500081EE94E0215080409040E1F700C0000018
:100C60000E9432092FEF8FE097E2215080409040A0
:100C7000E1F700C000000E9474092FEF83EC99E0B7
:100C8000215080409040E1F700C000000E947809A8
:100C90000E9432092FEF83EC99E021508040904070
:100CA000E1F700C000000E9474092FEF89EF90E087
:100CB000215080409040E1F700C000000E94780978
:100CC0000E9432092FEF89EC98E02150804090403B
:100CD000E1F700C000000E943D092FEF83EC99E08E
:100CE000215080409040E1F700C000000E94480978
:100CF0002FEF83EC99E0215080409040E1F700C055
:100D000000000E9453092FEF8FE097E221508040AE
:100D10009040E1F700C000000E9474092FEF87E8BF
:100D200093E1215080409040E1F700C000000E9414
:100D300078090E9469092FEF87E893E121508040EC
:100D40009040E1F700C000000E945E092FEF87E8A5
:100D500093E1215080409040E1F700C000000E94E4
:100D600048092FEF8FE097E2215080409040E1F753
:100D700000C000000E9432092FEF87E893E1215064
:100D800080409040E1F700C000000E943D092FEF35
:100D900087E893E1215080409040E1F700C00000D7
:100DA0002FEF83EC99E0215080409040E1F700C0A4
:100DB00000000E9453092FEF87E893E12150804003
:100DC0009040E1F700C000000E9448092FEF87E83B
:100DD00093E1215080409040E1F700C000000E9464
:100DE00032092FEF8FE097E2215080409040E1F7E9
:100DF00000C000000E9474092FEF89EF90E021509D
:100E000080409040E1F700C000000E9478090E94F5
:100E100032092FEF8DE892E1215080409040E1F7B8
:100E200000C000000E943D092FEF8FE097E22150A3
:100E300080409040E1F700C000002FEF87E893E189
:100E4000215080409040E1F700C000000E9453090B
:100E50002FEF87E893E1215080409040E1F700C0F8
:100E600000000E9448092FEF87E893E1215080405D
:100E70009040E1F700C000000E9432092FEF8FE0A0
:100E800097E2215080409040E1F700C000000E94AE
:100E90001C092FEF87E893E1215080409040E1F753
:100EA00000C000000E9427092FEF8FE097E2215039
:100EB00080409040E1F700C000002FEF87E893E109
:100EC000215080409040E1F700C000000E943D09A1
:100ED0002FEF87E893E1215080409040E1F700C078
:100EE00000000E9432092FEF87E893E121508040F3
:100EF0009040E1F700C000000E941C092FEF8FE036
:100F000097E2215080409040E1F700C000000E942D
:100F100006092FEF87E893E1215080409040E1F7E8
:100F200000C000000E9411092FEF83EC99E02150CE
:100F300080409040E1F700C000000E9474092FEF4C
:100F400089EF90E0215080409040E1F700C0000020
:100F50000E9478090E9411092FEF87EE93E021503B
:100F600080409040E1F700C000000E941C092FEF74
:100F700081EE94E0215080409040E1F700C00000F5
:100F80000E9427092FEF8FE097E221508040904088
:100F9000E1F700C000000E943D092FEF87E893E1D0
:100FA000215080409040E1F700C000000E943209CB
:100FB0002FEF83EC99E0215080409040E1F700C092
:100FC00000000E94F0082FEF81EE94E02150804055
:100FD0009040E1F700C000000E9474092FEF89EFF4
:100FE00090E0215080409040E1F700C000000E9456
:100FF00078090E94F0082FEF87EE93E0215080409F
:101000009040E1F700C000000E9474092FEF89EFC3
:1010100090E0215080409040E1F700C000000E9425
:1010200078090E94F0082FEF89EC98E02150804069
:101030009040E1F700C000000E9474092FEF89EF93
:1010400090E0215080409040E1F700C000000E94F5
:1010500078090E94F0082FEF87EE93E0215080403E
:101060009040E1F700C000000E9474092FEF89EF63
:1010700090E0215080409040E1F700C000000E94C5
:1010800078090E94F0082FEF87EE93E0215080400E
:101090009040E1F700C000000E9474092FEF89EF33
:1010A00090E0215080409040E1F700C000000E9495
:1010B00078090E94F0082FEF89EC98E021508040D9
:1010C0009040E1F700C000000E9474092FEF89EF03
:1010D00090E0215080409040E1F700C000000E9465
:1010E00078090E94F0082FEF87EE93E021508040AE
:1010F0009040E1F700C000000E9474092FEF89EFD3
:1011000090E0215080409040E1F700C000000E9434
:1011100078090E94F0082FEF87EE93E0215080407D
:101120009040E1F700C000000E9474092FEF89EFA2
:1011300090E0215080409040E1F700C000000E9404
:1011400078090E94F0082FEF89EC98E02150804048
:101150009040E1F700C000000E9474092FEF89EF72
:1011600090E0215080409040E1F700C000000E94D4
:1011700078090E94F0082FEF89EC98E02150804018
:101180009040E1F700C0000080E090E0089580E02A
:1011900090E00E94D7080E943A000E94BF020E947D
:1011A000BF0280E090E008950E94C708FDCF569AE4
:1011B000E4E6F0E020812F7D208324B5226424BD65
:1011C00025B5246025BD892B41F08FB780688FBF7E
:1011D000EEE6F0E080818260808380E090E0089518
:1011E00085B5887F85BD85B5846085BD86EC87BD66
:1011F00080E090E0089585B5887F85BD85B58460E1
:1012000085BD86EA87BD80E090E0089585B5887F3A
:1012100085BD85B5846085BD84E987BD80E090E0AB
:10122000089585B5887F85BD85B5846085BD84E8D2
:1012300087BD80E090E0089585B5887F85BD85B540
:10124000846085BD8CE787BD80E090E0089585B51A
:10125000887F85BD85B5846085BD8FE687BD80E0CC
:1012600090E0089585B5887F85BD85B5846085BD8E
:1012700082E687BD80E090E0089585B5887F85BDD2
:1012800085B5846085BD8DE587BD80E090E00895DB
:1012900085B5887F85BD85B5846085BD83E587BDBF
:1012A00080E090E0089585B5887F85BD85B5846030
:1012B00085BD89E487BD80E090E0089585B5887F8D
:1012C00085BD85B5846085BD81E487BD80E090E003
:1012D000089585B5887F85BD85B5836085BD89EF17
:1012E00087BD80E090E00895569880E090E00895F2
:0C12F000569A80E090E00895F894FFCF3B
:00000001FF
